{
  "contractName": "CourseMarketplace",
  "abi": [
    {
      "inputs": [],
      "stateMutability": "nonpayable",
      "type": "constructor"
    },
    {
      "inputs": [],
      "name": "CourseHasOwner",
      "type": "error"
    },
    {
      "inputs": [],
      "name": "CourseIsNotCreated",
      "type": "error"
    },
    {
      "inputs": [],
      "name": "InvalidState",
      "type": "error"
    },
    {
      "inputs": [],
      "name": "OnlyOwner",
      "type": "error"
    },
    {
      "inputs": [],
      "name": "SenderIsNotCourseOwner",
      "type": "error"
    },
    {
      "inputs": [],
      "name": "isStopped",
      "outputs": [
        {
          "internalType": "bool",
          "name": "",
          "type": "bool"
        }
      ],
      "stateMutability": "view",
      "type": "function",
      "constant": true
    },
    {
      "stateMutability": "payable",
      "type": "receive",
      "payable": true
    },
    {
      "inputs": [
        {
          "internalType": "uint256",
          "name": "amount",
          "type": "uint256"
        }
      ],
      "name": "withdraw",
      "outputs": [],
      "stateMutability": "nonpayable",
      "type": "function"
    },
    {
      "inputs": [],
      "name": "emergencyWithdraw",
      "outputs": [],
      "stateMutability": "nonpayable",
      "type": "function"
    },
    {
      "inputs": [],
      "name": "selfDestruct",
      "outputs": [],
      "stateMutability": "nonpayable",
      "type": "function"
    },
    {
      "inputs": [],
      "name": "stopContract",
      "outputs": [],
      "stateMutability": "nonpayable",
      "type": "function"
    },
    {
      "inputs": [],
      "name": "resumeContract",
      "outputs": [],
      "stateMutability": "nonpayable",
      "type": "function"
    },
    {
      "inputs": [
        {
          "internalType": "bytes16",
          "name": "courseId",
          "type": "bytes16"
        },
        {
          "internalType": "bytes32",
          "name": "proof",
          "type": "bytes32"
        }
      ],
      "name": "purchaseCourse",
      "outputs": [],
      "stateMutability": "payable",
      "type": "function",
      "payable": true
    },
    {
      "inputs": [
        {
          "internalType": "bytes32",
          "name": "courseHash",
          "type": "bytes32"
        }
      ],
      "name": "repurchaseCourse",
      "outputs": [],
      "stateMutability": "payable",
      "type": "function",
      "payable": true
    },
    {
      "inputs": [
        {
          "internalType": "bytes32",
          "name": "courseHash",
          "type": "bytes32"
        }
      ],
      "name": "activateCourse",
      "outputs": [],
      "stateMutability": "nonpayable",
      "type": "function"
    },
    {
      "inputs": [
        {
          "internalType": "bytes32",
          "name": "courseHash",
          "type": "bytes32"
        }
      ],
      "name": "deactivateCourse",
      "outputs": [],
      "stateMutability": "nonpayable",
      "type": "function"
    },
    {
      "inputs": [
        {
          "internalType": "address",
          "name": "newOwner",
          "type": "address"
        }
      ],
      "name": "transferOwnership",
      "outputs": [],
      "stateMutability": "nonpayable",
      "type": "function"
    },
    {
      "inputs": [],
      "name": "getCourseCount",
      "outputs": [
        {
          "internalType": "uint256",
          "name": "",
          "type": "uint256"
        }
      ],
      "stateMutability": "view",
      "type": "function",
      "constant": true
    },
    {
      "inputs": [
        {
          "internalType": "uint256",
          "name": "index",
          "type": "uint256"
        }
      ],
      "name": "getCourseHashAtIndex",
      "outputs": [
        {
          "internalType": "bytes32",
          "name": "",
          "type": "bytes32"
        }
      ],
      "stateMutability": "view",
      "type": "function",
      "constant": true
    },
    {
      "inputs": [
        {
          "internalType": "bytes32",
          "name": "courseHash",
          "type": "bytes32"
        }
      ],
      "name": "getCourseByHash",
      "outputs": [
        {
          "components": [
            {
              "internalType": "uint256",
              "name": "id",
              "type": "uint256"
            },
            {
              "internalType": "uint256",
              "name": "price",
              "type": "uint256"
            },
            {
              "internalType": "bytes32",
              "name": "proof",
              "type": "bytes32"
            },
            {
              "internalType": "address",
              "name": "owner",
              "type": "address"
            },
            {
              "internalType": "enum CourseMarketplace.State",
              "name": "state",
              "type": "uint8"
            }
          ],
          "internalType": "struct CourseMarketplace.Course",
          "name": "",
          "type": "tuple"
        }
      ],
      "stateMutability": "view",
      "type": "function",
      "constant": true
    },
    {
      "inputs": [],
      "name": "getContractOwner",
      "outputs": [
        {
          "internalType": "address",
          "name": "",
          "type": "address"
        }
      ],
      "stateMutability": "view",
      "type": "function",
      "constant": true
    }
  ],
  "bytecode": "0x608060405260008060006101000a81548160ff02191690831515021790555034801561002a57600080fd5b5061003a3361003f60201b60201c565b610083565b80600460006101000a81548173ffffffffffffffffffffffffffffffffffffffff021916908373ffffffffffffffffffffffffffffffffffffffff16021790555050565b611843806100926000396000f3fe6080604052600436106100ec5760003560e01c80636d11290b1161008a578063c4bc5da511610059578063c4bc5da5146102b8578063d76821cb146102cf578063db2e21bc146102eb578063f2fde38b14610302576100f3565b80636d11290b14610210578063935d7e6d1461024d57806396cfda06146102765780639cb8a26a146102a1576100f3565b80633f683b6a116100c65780633f683b6a14610161578063442890d51461018c5780636136e1eb146101b757806362e4e6ac146101d3576100f3565b806312253a6c146100f85780632e1a7d4d1461010f5780633926257214610138576100f3565b366100f357005b600080fd5b34801561010457600080fd5b5061010d61032b565b005b34801561011b57600080fd5b50610136600480360381019061013191906111d8565b6103b3565b005b34801561014457600080fd5b5061015f600480360381019061015a919061123b565b6104f1565b005b34801561016d57600080fd5b5061017661066b565b6040516101839190611283565b60405180910390f35b34801561019857600080fd5b506101a161067c565b6040516101ae91906112df565b60405180910390f35b6101d160048036038101906101cc919061123b565b6106a6565b005b3480156101df57600080fd5b506101fa60048036038101906101f5919061123b565b6107fb565b6040516102079190611406565b60405180910390f35b34801561021c57600080fd5b50610237600480360381019061023291906111d8565b6108d7565b6040516102449190611430565b60405180910390f35b34801561025957600080fd5b50610274600480360381019061026f919061123b565b6108f4565b005b34801561028257600080fd5b5061028b610b4d565b604051610298919061145a565b60405180910390f35b3480156102ad57600080fd5b506102b6610b57565b005b3480156102c457600080fd5b506102cd610c15565b005b6102e960048036038101906102e491906114cd565b610c9d565b005b3480156102f757600080fd5b50610300610e56565b005b34801561030e57600080fd5b5061032960048036038101906103249190611539565b610faa565b005b61033361067c565b73ffffffffffffffffffffffffffffffffffffffff163373ffffffffffffffffffffffffffffffffffffffff1614610397576040517f5fc483c500000000000000000000000000000000000000000000000000000000815260040160405180910390fd5b60016000806101000a81548160ff021916908315150217905550565b6103bb61067c565b73ffffffffffffffffffffffffffffffffffffffff163373ffffffffffffffffffffffffffffffffffffffff161461041f576040517f5fc483c500000000000000000000000000000000000000000000000000000000815260040160405180910390fd5b6000600460009054906101000a900473ffffffffffffffffffffffffffffffffffffffff1673ffffffffffffffffffffffffffffffffffffffff168260405161046790611597565b60006040518083038185875af1925050503d80600081146104a4576040519150601f19603f3d011682016040523d82523d6000602084013e6104a9565b606091505b50509050806104ed576040517f08c379a00000000000000000000000000000000000000000000000000000000081526004016104e490611609565b60405180910390fd5b5050565b60008054906101000a900460ff161561050957600080fd5b61051161067c565b73ffffffffffffffffffffffffffffffffffffffff163373ffffffffffffffffffffffffffffffffffffffff1614610575576040517f5fc483c500000000000000000000000000000000000000000000000000000000815260040160405180910390fd5b61057e81611022565b6105b4576040517f4db0c48300000000000000000000000000000000000000000000000000000000815260040160405180910390fd5b6000600160008381526020019081526020016000209050600060028111156105df576105de611327565b5b8160030160149054906101000a900460ff16600281111561060357610602611327565b5b1461063a576040517fbaf3f0f700000000000000000000000000000000000000000000000000000000815260040160405180910390fd5b60018160030160146101000a81548160ff0219169083600281111561066257610661611327565b5b02179055505050565b60008054906101000a900460ff1681565b6000600460009054906101000a900473ffffffffffffffffffffffffffffffffffffffff16905090565b60008054906101000a900460ff16156106be57600080fd5b6106c781611022565b6106fd576040517f4db0c48300000000000000000000000000000000000000000000000000000000815260040160405180910390fd5b61070681611091565b61073c576040517fcce31cc400000000000000000000000000000000000000000000000000000000815260040160405180910390fd5b600060016000838152602001908152602001600020905060028081111561076657610765611327565b5b8160030160149054906101000a900460ff16600281111561078a57610789611327565b5b146107c1576040517fbaf3f0f700000000000000000000000000000000000000000000000000000000815260040160405180910390fd5b60008160030160146101000a81548160ff021916908360028111156107e9576107e8611327565b5b02179055503481600101819055505050565b610803611143565b600160008381526020019081526020016000206040518060a00160405290816000820154815260200160018201548152602001600282015481526020016003820160009054906101000a900473ffffffffffffffffffffffffffffffffffffffff1673ffffffffffffffffffffffffffffffffffffffff1673ffffffffffffffffffffffffffffffffffffffff1681526020016003820160149054906101000a900460ff1660028111156108ba576108b9611327565b5b60028111156108cc576108cb611327565b5b815250509050919050565b600060026000838152602001908152602001600020549050919050565b60008054906101000a900460ff161561090c57600080fd5b61091461067c565b73ffffffffffffffffffffffffffffffffffffffff163373ffffffffffffffffffffffffffffffffffffffff1614610978576040517f5fc483c500000000000000000000000000000000000000000000000000000000815260040160405180910390fd5b61098181611022565b6109b7576040517f4db0c48300000000000000000000000000000000000000000000000000000000815260040160405180910390fd5b6000600160008381526020019081526020016000209050600060028111156109e2576109e1611327565b5b8160030160149054906101000a900460ff166002811115610a0657610a05611327565b5b14610a3d576040517fbaf3f0f700000000000000000000000000000000000000000000000000000000815260040160405180910390fd5b60008160030160009054906101000a900473ffffffffffffffffffffffffffffffffffffffff1673ffffffffffffffffffffffffffffffffffffffff168260010154604051610a8b90611597565b60006040518083038185875af1925050503d8060008114610ac8576040519150601f19603f3d011682016040523d82523d6000602084013e610acd565b606091505b5050905080610b11576040517f08c379a0000000000000000000000000000000000000000000000000000000008152600401610b0890611675565b60405180910390fd5b60028260030160146101000a81548160ff02191690836002811115610b3957610b38611327565b5b021790555060008260010181905550505050565b6000600354905090565b60008054906101000a900460ff16610b6e57600080fd5b610b7661067c565b73ffffffffffffffffffffffffffffffffffffffff163373ffffffffffffffffffffffffffffffffffffffff1614610bda576040517f5fc483c500000000000000000000000000000000000000000000000000000000815260040160405180910390fd5b600460009054906101000a900473ffffffffffffffffffffffffffffffffffffffff1673ffffffffffffffffffffffffffffffffffffffff16ff5b610c1d61067c565b73ffffffffffffffffffffffffffffffffffffffff163373ffffffffffffffffffffffffffffffffffffffff1614610c81576040517f5fc483c500000000000000000000000000000000000000000000000000000000815260040160405180910390fd5b60008060006101000a81548160ff021916908315150217905550565b60008054906101000a900460ff1615610cb557600080fd5b60008233604051602001610cca9291906116fe565b604051602081830303815290604052805190602001209050610ceb81611091565b15610d22576040517fb0fc2d9700000000000000000000000000000000000000000000000000000000815260040160405180910390fd5b600060036000815480929190610d3790611759565b9190505590508160026000838152602001908152602001600020819055506040518060a001604052808281526020013481526020018481526020013373ffffffffffffffffffffffffffffffffffffffff16815260200160006002811115610da257610da1611327565b5b8152506001600084815260200190815260200160002060008201518160000155602082015181600101556040820151816002015560608201518160030160006101000a81548173ffffffffffffffffffffffffffffffffffffffff021916908373ffffffffffffffffffffffffffffffffffffffff16021790555060808201518160030160146101000a81548160ff02191690836002811115610e4857610e47611327565b5b021790555090505050505050565b60008054906101000a900460ff16610e6d57600080fd5b610e7561067c565b73ffffffffffffffffffffffffffffffffffffffff163373ffffffffffffffffffffffffffffffffffffffff1614610ed9576040517f5fc483c500000000000000000000000000000000000000000000000000000000815260040160405180910390fd5b6000600460009054906101000a900473ffffffffffffffffffffffffffffffffffffffff1673ffffffffffffffffffffffffffffffffffffffff1647604051610f2190611597565b60006040518083038185875af1925050503d8060008114610f5e576040519150601f19603f3d011682016040523d82523d6000602084013e610f63565b606091505b5050905080610fa7576040517f08c379a0000000000000000000000000000000000000000000000000000000008152600401610f9e906117ed565b60405180910390fd5b50565b610fb261067c565b73ffffffffffffffffffffffffffffffffffffffff163373ffffffffffffffffffffffffffffffffffffffff1614611016576040517f5fc483c500000000000000000000000000000000000000000000000000000000815260040160405180910390fd5b61101f816110ff565b50565b60008073ffffffffffffffffffffffffffffffffffffffff166001600084815260200190815260200160002060030160009054906101000a900473ffffffffffffffffffffffffffffffffffffffff1673ffffffffffffffffffffffffffffffffffffffff1614159050919050565b60003373ffffffffffffffffffffffffffffffffffffffff166001600084815260200190815260200160002060030160009054906101000a900473ffffffffffffffffffffffffffffffffffffffff1673ffffffffffffffffffffffffffffffffffffffff16149050919050565b80600460006101000a81548173ffffffffffffffffffffffffffffffffffffffff021916908373ffffffffffffffffffffffffffffffffffffffff16021790555050565b6040518060a00160405280600081526020016000815260200160008019168152602001600073ffffffffffffffffffffffffffffffffffffffff1681526020016000600281111561119757611196611327565b5b81525090565b600080fd5b6000819050919050565b6111b5816111a2565b81146111c057600080fd5b50565b6000813590506111d2816111ac565b92915050565b6000602082840312156111ee576111ed61119d565b5b60006111fc848285016111c3565b91505092915050565b6000819050919050565b61121881611205565b811461122357600080fd5b50565b6000813590506112358161120f565b92915050565b6000602082840312156112515761125061119d565b5b600061125f84828501611226565b91505092915050565b60008115159050919050565b61127d81611268565b82525050565b60006020820190506112986000830184611274565b92915050565b600073ffffffffffffffffffffffffffffffffffffffff82169050919050565b60006112c98261129e565b9050919050565b6112d9816112be565b82525050565b60006020820190506112f460008301846112d0565b92915050565b611303816111a2565b82525050565b61131281611205565b82525050565b611321816112be565b82525050565b7f4e487b7100000000000000000000000000000000000000000000000000000000600052602160045260246000fd5b6003811061136757611366611327565b5b50565b600081905061137882611356565b919050565b60006113888261136a565b9050919050565b6113988161137d565b82525050565b60a0820160008201516113b460008501826112fa565b5060208201516113c760208501826112fa565b5060408201516113da6040850182611309565b5060608201516113ed6060850182611318565b506080820151611400608085018261138f565b50505050565b600060a08201905061141b600083018461139e565b92915050565b61142a81611205565b82525050565b60006020820190506114456000830184611421565b92915050565b611454816111a2565b82525050565b600060208201905061146f600083018461144b565b92915050565b60007fffffffffffffffffffffffffffffffff0000000000000000000000000000000082169050919050565b6114aa81611475565b81146114b557600080fd5b50565b6000813590506114c7816114a1565b92915050565b600080604083850312156114e4576114e361119d565b5b60006114f2858286016114b8565b925050602061150385828601611226565b9150509250929050565b611516816112be565b811461152157600080fd5b50565b6000813590506115338161150d565b92915050565b60006020828403121561154f5761154e61119d565b5b600061155d84828501611524565b91505092915050565b600081905092915050565b50565b6000611581600083611566565b915061158c82611571565b600082019050919050565b60006115a282611574565b9150819050919050565b600082825260208201905092915050565b7f5472616e73666572206661696c65642e00000000000000000000000000000000600082015250565b60006115f36010836115ac565b91506115fe826115bd565b602082019050919050565b60006020820190508181036000830152611622816115e6565b9050919050565b7f5472616e73666572206661696c65640000000000000000000000000000000000600082015250565b600061165f600f836115ac565b915061166a82611629565b602082019050919050565b6000602082019050818103600083015261168e81611652565b9050919050565b6000819050919050565b6116b06116ab82611475565b611695565b82525050565b60008160601b9050919050565b60006116ce826116b6565b9050919050565b60006116e0826116c3565b9050919050565b6116f86116f3826112be565b6116d5565b82525050565b600061170a828561169f565b60108201915061171a82846116e7565b6014820191508190509392505050565b7f4e487b7100000000000000000000000000000000000000000000000000000000600052601160045260246000fd5b6000611764826111a2565b91507fffffffffffffffffffffffffffffffffffffffffffffffffffffffffffffffff82036117965761179561172a565b5b600182019050919050565b7f456d657267656e637920776974686472617720636f6d706c657465642e000000600082015250565b60006117d7601d836115ac565b91506117e2826117a1565b602082019050919050565b60006020820190508181036000830152611806816117ca565b905091905056fea2646970667358221220f19f1989149c34d1b958a652b754c04679a02d9cfe8d8dddc7ca6fe2afc7891f64736f6c63430008110033",
  "immutableReferences": {},
  "source": "// SPDX-License-Identifier: MIT\npragma solidity >=0.4.22 <0.9.0;\n\ncontract CourseMarketplace {\n    enum State {\n        Purchased,\n        Activated,\n        Deactivated\n    }\n\n    struct Course {\n        uint id; //32 bytes\n        uint price; //32\n        bytes32 proof; //32\n        address owner; //20\n        State state; //1\n    }\n\n    bool public isStopped = false;\n\n    // mapping of courseHash to Course data\n    mapping(bytes32 => Course) private ownedCourses;\n\n    // mapping of courseID to courseHash\n    mapping(uint => bytes32) private ownedCourseHash;\n\n    // number of all courses + id of the course\n    uint private totalOwnedCourses;\n\n    address payable private owner;\n\n    constructor() {\n        setContractOwner(msg.sender);\n    }\n\n    /// Course has invalid state!\n    error InvalidState();\n\n    /// Course is not created!\n    error CourseIsNotCreated();\n\n    /// Course has already Owner!\n    error CourseHasOwner();\n\n    /// Sender is not course owner!\n    error SenderIsNotCourseOwner();\n\n    /// Only the owner has access!\n    error OnlyOwner();\n\n    modifier onlyOwner() {\n        if (msg.sender != getContractOwner()){\n            revert OnlyOwner();\n        }\n        _;\n    }\n\n    modifier onlyWhenNotStopped {\n        require(!isStopped);\n        _;\n    }\n\n    modifier onlyWhenStopped {\n        require(isStopped);\n        _;\n    }\n\n    receive() external payable {}\n\n    function withdraw(uint amount)\n        external\n        onlyOwner\n    {\n        (bool success, ) = owner.call{value: amount}(\"\");\n        require(success, \"Transfer failed.\");\n    }\n    \n    function emergencyWithdraw()\n        external\n        onlyWhenStopped\n        onlyOwner\n    {\n        (bool success, ) = owner.call{value: address(this).balance}(\"\");\n        require(success, \"Emergency withdraw completed.\");\n    }\n\n    function selfDestruct()\n        external\n        onlyWhenStopped \n        onlyOwner \n    {\n        selfdestruct(owner);\n    }\n\n    function stopContract()\n        external\n        onlyOwner\n    {\n        isStopped = true;\n    }\n\n    function resumeContract()\n        external\n        onlyOwner\n    {\n        isStopped = false;\n    }\n\n    function purchaseCourse(\n        bytes16 courseId, // 0x00000000000000000000000000003130\n        bytes32 proof // 0x0000000000000000000000000000313000000000000000000000000000003130\n    )\n        external\n        payable\n        onlyWhenNotStopped\n    {\n        bytes32 courseHash = keccak256(abi.encodePacked(courseId, msg.sender));\n\n        if (hasCourseOwnership(courseHash)) {\n            revert CourseHasOwner();\n        }\n\n        uint id = totalOwnedCourses++;\n        ownedCourseHash[id] = courseHash;\n        ownedCourses[courseHash] = Course({\n            id: id,\n            price: msg.value,\n            proof: proof,\n            state: State.Purchased,\n            owner: msg.sender\n        });\n    }\n\n    function repurchaseCourse(bytes32 courseHash) \n        external\n        payable\n        onlyWhenNotStopped\n    {\n         if (!isCourseCreated(courseHash)) {\n            revert CourseIsNotCreated();\n        }\n\n        if (!hasCourseOwnership((courseHash))) {\n            revert SenderIsNotCourseOwner();\n        }\n\n        Course storage course = ownedCourses[courseHash];\n\n        if (course.state != State.Deactivated) {\n            revert InvalidState();\n        }\n\n        course.state = State.Purchased;\n        course.price = msg.value;\n    }\n\n    function activateCourse(\n            bytes32 courseHash\n        )\n            external\n            onlyWhenNotStopped\n            onlyOwner\n        {\n            if (!isCourseCreated(courseHash)) {\n                revert CourseIsNotCreated();\n            }\n\n            Course storage course = ownedCourses[courseHash];\n\n        if (course.state != State.Purchased) {\n            revert InvalidState();\n        }\n\n            course.state = State.Activated;\n\n    }\n\n    function deactivateCourse(\n        bytes32 courseHash\n        )\n            external\n            onlyWhenNotStopped\n            onlyOwner\n        {\n        if (!isCourseCreated(courseHash)) {\n            revert CourseIsNotCreated();\n        }\n\n        Course storage course = ownedCourses[courseHash];\n\n        if (course.state != State.Purchased) {\n            revert InvalidState();\n        }\n\n        (bool success, ) = course.owner.call{value: course.price}('');\n        require(success, 'Transfer failed');\n\n        course.state = State.Deactivated;\n        course.price = 0;\n\n    }\n\n    function transferOwnership(address newOwner)\n        external\n        onlyOwner\n    {\n        setContractOwner(newOwner);\n    }\n\n\n    function getCourseCount()\n        external\n        view\n        returns (uint)\n    {\n        return totalOwnedCourses;\n    }\n\n    function getCourseHashAtIndex(uint index)\n        external\n        view\n        returns (bytes32)\n    {\n        return ownedCourseHash[index];\n    }\n\n    function getCourseByHash(bytes32 courseHash)\n        external\n        view\n        returns (Course memory)\n    {\n        return ownedCourses[courseHash];\n    }\n\n    function getContractOwner()\n        public\n        view\n        returns (address)\n    {\n        return owner;\n    }\n\n    function setContractOwner(address newOwner) private {\n        owner = payable(newOwner);\n    }\n\n    function isCourseCreated(bytes32 courseHash) \n        private\n        view\n        returns (bool)\n    {\n        return ownedCourses[courseHash].owner != 0x0000000000000000000000000000000000000000;\n    }\n\n    function hasCourseOwnership(bytes32 courseHash)\n        private\n        view\n        returns (bool)\n    {\n        return ownedCourses[courseHash].owner == msg.sender;\n    }\n}",
  "sourcePath": "/Users/drivera/Development/blockchain/marketplace/contracts/CourseMarketplace.sol",
  "compiler": {
    "name": "solc",
    "version": "0.8.17+commit.8df45f5f.Emscripten.clang"
  },
  "schemaVersion": "3.4.10",
  "updatedAt": "2023-07-28T17:12:11.475Z",
  "networkType": "ethereum",
  "devdoc": {
    "kind": "dev",
    "methods": {},
    "version": 1
  },
  "userdoc": {
    "errors": {
      "CourseHasOwner()": [
        {
          "notice": "Course has already Owner!"
        }
      ],
      "CourseIsNotCreated()": [
        {
          "notice": "Course is not created!"
        }
      ],
      "InvalidState()": [
        {
          "notice": "Course has invalid state!"
        }
      ],
      "OnlyOwner()": [
        {
          "notice": "Only the owner has access!"
        }
      ],
      "SenderIsNotCourseOwner()": [
        {
          "notice": "Sender is not course owner!"
        }
      ]
    },
    "kind": "user",
    "methods": {},
    "version": 1
  }
}